S10F00007E8000000100010001000101ED
S12380000F8E00FFCE10004FA72C862CA72DCC822DFD8238FD823A7F823C7F000B86FFB74C
S12380207FF24FB77FFBB77FF386AFB77FFC8638BD817DBD815818CE823D18FFFFD618CE35
S1238040829018FFFFF60EBD80FE810126057E807920F4810226057E809120EB8103260586
S12380607E809A20E2810426057E80B320D9810526057E80D420D020CEBD80DEBD80FE163B
S1238080C100270A8D785A18A700180820F27E80477C000BBD80DE186E00BD80DEBD80FED7
S12380A016C100270B18A600BD81235A180820F17E8047960B8100270BCE00001830C6078D
S12380C0BD80EC3BCE10001C2D011D2D017E80474A264A0018CE80D0BD812D7E8047363773
S12380E0BD80FE16BD80FE188F33323936C100270BA6000818A70018085A20F13239183CCB
S12381004FB1823C27FB18FE823818A6007A823C1808188C8237260418CE822D18FF8238A8
S1238120183839CE10001F2E80F9A72F393618A60081002707BD8123180820F232395445C5
S1238140524D494E5553004A264A20536F66742D4861726428632900860CBD817DBD81E7F5
S12381608604C601BD819118CE813EBD819F8601C602BD819118CE8147BD819F3937F67FCB
S1238180FCC4FDF77FFCB77FF0CC000BBD81F333395A4A8B80C10027028B28BD817D3918BA
S12381A0A60081002707BD81AE180820F23937F67FFCCA02F77FFCB77FF0CC000BBD81F3FB
S12381C033393C4FCE006402378FC1002705CB30860A3F33CE000A02378FCB30860A3F3323
S12381E0CB30860A3F38398601BD817DCC01D0BD81F33983000126FB3957BCBDBEBBB8B95F
S12382007F7767BFBACF475F4FB67FF181FF27F9164F18CE81F918E10027094C180881100F
S110822026F486FF36CCFFFFBD81F3323912
S1238237000001000101CE1000A62EE62F18FE823AB6823C810A271618E7007C823C1808F2
S1238257188C8237260418CE822D18FF823A3B829E82C982EB82F282F7829D829D829D8235
S12382779D829D82FB830083048309830D8313829D829D829D829D83190E37CE826648167D
S12382973AEE00336E003B7A000B3637CCFFFFBD81F33332CE10001C2D011D2D0130C609FB
S12382B718CE0000BD80EC308FC300088FDF097E80473637CCFFFFBD81F33332CE10001C87
S12382D72D011D2D0130C60918CE0000BD80EC9F097E8047BD80FE30A7023B17BD81233B0D
S12382F7BD812D3B17BD81AE3BBD819F3B17BD817D3BBD81E73B188FBD81913B188FBD8164
S10C8317C23BBD820930A7023B00
S9030000FC
