:100000000C945D000C9485000C9485000C94850084
:100010000C9485000C9485000C9485000C9485004C
:100020000C9485000C9485000C9485000C9485003C
:100030000C9485000C9485000C9485000C9485002C
:100040000C9436060C9485000C94A6060C9480063D
:100050000C9485000C9485000C9485000C9485000C
:100060000C94D8060C9485000000000024002700A2
:100070002A0000000000250028002B0004040404CE
:100080000404040402020202020203030303030342
:10009000010204081020408001020408102001021F
:1000A00004081020000000080002010000030407FB
:1000B0000000000000000000F70711241FBECFEF72
:1000C000D8E0DEBFCDBF11E0A0E0B1E0E8EAF4E1A6
:1000D00002C005900D92A03AB107D9F723E0A0EA3B
:1000E000B1E001C01D92A832B207E1F710E0CDE502
:1000F000D0E004C02197FE010E944C0ACC35D10704
:10010000C9F70E9433080C94520A0C94000090E046
:10011000FC01EC55FF4F2491FC01E057FF4F349157
:10012000FC01E458FF4FE491EE23C9F0222339F09B
:10013000233001F1A8F4213019F1223029F1F0E047
:10014000EE0FFF1FEE58FF4FA591B4918FB7F894B3
:10015000EC91611126C030953E233C938FBF0895EA
:100160002730A9F02830C9F0243049F78091800069
:100170008F7D03C0809180008F7780938000DFCFD8
:1001800084B58F7784BDDBCF84B58F7DFBCF809125
:10019000B0008F778093B000D2CF8091B0008F7D78
:1001A000F9CF3E2BDACF3FB7F89480911C029091A3
:1001B0001D02A0911E02B0911F0226B5A89B05C08A
:1001C0002F3F19F00196A11DB11D3FBFBA2FA92FD6
:1001D000982F8827BC01CD01620F711D811D911DD3
:1001E00042E0660F771F881F991F4A95D1F708953F
:1001F00008950895AF92BF92CF92DF92EF92FF924F
:100200000F931F93CF93DF936C017B018B01040F3E
:10021000151FEB015E01AE18BF08C017D10759F0DA
:100220006991D601ED91FC910190F081E02DC6011C
:100230000995892B79F7C501DF91CF911F910F9116
:10024000FF90EF90DF90CF90BF90AF900895FC01AA
:10025000538D448D252F30E0842F90E0821B930B2B
:10026000541710F0CF96089501970895FC01918DD1
:10027000828D981761F0A28DAE0FBF2FB11D5D96D4
:100280008C91928D9F5F9F73928F90E008958FEF76
:100290009FEF0895FC01918D828D981731F0828D2A
:1002A000E80FF11D858D90E008958FEF9FEF089581
:1002B000FC01918D228D892F90E0805C9F4F821BE5
:1002C00091098F739927089580E792E00E94580161
:1002D00021E0892B09F420E0822F089580E090E04E
:1002E000892B29F00E94640181110C94000008956B
:1002F000FC01A48DA80FB92FB11DA35ABF4F2C919B
:10030000848D90E001968F739927848FA689B78991
:100310002C93A089B1898C91837080648C93938D88
:10032000848D981306C00288F389E02D80818F7D2B
:1003300080830895EF92FF920F931F93CF93DF93E3
:10034000EC0181E0888F9B8D8C8D98131AC0E88911
:10035000F989808185FF15C09FB7F894EE89FF89E0
:100360006083E889F98980818370806480839FBF7E
:1003700081E090E0DF91CF911F910F91FF90EF907E
:100380000895F62E0B8D10E00F5F1F4F0F7311278E
:10039000E02E8C8D8E110CC00FB607FCFACFE889C9
:1003A000F989808185FFF5CFCE010E947801F1CFD8
:1003B000EB8DEC0FFD2FF11DE35AFF4FF0829FB73D
:1003C000F8940B8FEA89FB8980818062CFCFCF932D
:1003D000DF93EC01888D8823B9F0AA89BB89E8896D
:1003E000F9898C9185FD03C0808186FD0DC00FB613
:1003F00007FCF7CF8C9185FFF2CF808185FFEDCF91
:10040000CE010E947801E9CFDF91CF9108958091CC
:10041000080290910902891B990B08950895E091B3
:10042000090280910802E81730F4F0E0EC51FE4F29
:10043000808190E008958FEF9FEF089590910902D9
:10044000809108022FEF3FEF981748F4E92FF0E072
:10045000EC51FE4F208130E09F5F90930902C9016B
:10046000089590E080E008952091C101260F332780
:10047000331F21323105ECF420914602FC0190E05B
:1004800080E0243069F082E00895A091C1012191BB
:10049000AC014F555E4FA40FB52FB11D2C930196A3
:1004A000861798F38091C101680F6093C10180E0C5
:1004B000089581E00895CF92DF92EF92FF920F931B
:1004C0001F93CF93DF937C01CB018A0120914C02D3
:1004D000222389F0EB016B01C40ED51ECC15DD057E
:1004E00069F06991D701ED91FC910190F081E02DC7
:1004F000C7010995F3CF642F0E943402C801DF9130
:10050000CF911F910F91FF90EF90DF90CF900895C2
:10051000CF93DF931F92CDB7DEB7698320914C0252
:100520002223F9F020916F02203258F021E030E0D0
:10053000FC013383228390E080E00F90DF91CF9124
:10054000089580914D02E82FF0E0E25BFD4F998124
:1005500090838F5F80934D0280936F0281E090E0E3
:10056000ECCF61E0CE0101960E943402F7CF1092E9
:10057000460281E0809345021092200261E082E110
:100580000E94870061E083E10E948700E9EBF0E0D0
:1005900080818E7F808380818D7F808388E48093BB
:1005A000B80085E48093BC000895CF93DF9391E079
:1005B0009093A0018823B9F0C091B800D091BA00FF
:1005C0008091BC008A7B8093BC0060E082E10E9445
:1005D000870060E083E10E9487000E94B702D09309
:1005E000BA00C093B800DF91CF9108958F929F9287
:1005F000AF92BF92CF92DF92EF92FF920F931F9331
:10060000CF93DF93D0916F02D13208F0D7C0182F6B
:10061000C0916E020E94D3006B017C018091460262
:1006200081116BC082E080934602109345028FEFE8
:100630008093440210924302D0934202AEE4B2E0AF
:10064000E2E2F2E080E0D81391C0109221028091A2
:100650002102CC0FC82BC09321028091200281304F
:1006600009F088C0109220020E94D3006B017C0127
:10067000809121028093BB008091480290914902B1
:10068000A0914A02B0914B02892B8A2B8B2BA1F0AF
:100690000E94D300009148021091490220914A0221
:1006A00030914B026C197D098E099F0906171707B7
:1006B0002807390708F442C08091BC0083FDD8CFD9
:1006C00085EC8093BC000E94D3006B017C0180917B
:1006D0004602823009F450C0809144028F3F09F4F1
:1006E0006FC080914402803209F46CC08091440252
:1006F000803309F469C084E026C08091480290915B
:100700004902A0914A02B0914B02892B8A2B8B2B74
:1007100009F484CF0E94D30080904802909049024F
:10072000A0904A02B0904B026C197D098E099F0976
:1007300086169706A806B90608F070CF8091470282
:100740000E94D50285E010924D0210926F02109225
:100750004C02DF91CF911F910F91FF90EF90DF90AE
:10076000CF90BF90AF909F908F9008959D9191935F
:100770008F5F69CF85EEA5CF8091480290914902A5
:10078000A0914A02B0914B02892B8A2B8B2B09F442
:100790009ECF0E94D30000914802109149022091FF
:1007A0004A0230914B026C197D098E099F09061788
:1007B00017072807390708F08ACFC0CF81E0C3CFD9
:1007C00080E0C1CF82E0BFCF83E0BDCFCF93DF9386
:1007D000EA0191E090934C0280936E0210924D02D8
:1007E00010926F028DE093E00E94880268818DE094
:1007F00093E00E94880281E00E94F60291E081115C
:1008000090E0892FDF91CF910895FC0101900020A5
:10081000E9F73197AF01481B590BBC0180E792E023
:100820000C94FA00CF93DF930E940504EC0184E25C
:1008300091E00E9405048C0F9D1FDF91CF910895D8
:100840002F923F924F925F926F927F928F929F92E0
:10085000AF92BF92CF92DF92EF92FF920F931F93CE
:10086000CF93DF93CDB7DEB72B970FB6F894DEBFEB
:100870000FBECDBFD82EC62EF42E3D832C8318017B
:100880008FB7F894409018025090190260901A02A5
:1008900070901B028FBF2D2D220F2B83042FE12C74
:1008A0001B8611E050E05A834983C101B0E0A0E00B
:1008B0008E839F83A887B98710934C02D0926E02D3
:1008C00010924D0210926F026C2D8DE093E00E9409
:1008D000880281E00E94F60210934C0210924D02B1
:1008E00010926F020E94D3004B015C01809146027E
:1008F00081116DC00A87013210F090E29A8710933F
:10090000460210934502AFEFA093440210924302B7
:100910008A858150809342021093210280912102A6
:10092000BB818B2B8093210280912002813009F0C2
:1009300092C0109220020E94D3004B015C01809172
:1009400021028093BB008091480290914902A091BE
:100950004A02B0914B02892B8A2B8B2BA1F00E946B
:10096000D300209148023091490240914A025091AF
:100970004B02681979098A099B0926173707480726
:10098000590708F445C08091BC0083FDD8CF25EC01
:100990002093BC000E94D3004B015C018091460271
:1009A000813009F45CC0809143024A85841718F4B1
:1009B000509143025A87A2E2B2E0E4EEF1E080E017
:1009C0009A85891751F19D9191938F5FF9CF80910D
:1009D000480290914902A0914A02B0914B02892BA2
:1009E0008A2B8B2B09F482CF0E94D30020914802DE
:1009F0003091490240914A0250914B02681979099D
:100A00008A099B09261737074807590708F06ECF50
:100A1000809147020E94D5021A8610920902AA8587
:100A2000A09308029091080280910902981709F496
:100A300051C021143104A9F58DE093E00E941E02FB
:100A4000EC81FD81BB85EB0FF11DB7FDFA9580832D
:100A5000BF5FBB87E7CF35EE3093BC009BCF809163
:100A6000480290914902A0914A02B0914B02892B11
:100A70008A2B8B2B09F492CF0E94D300209148023D
:100A80003091490240914A0250914B02681979090C
:100A90008A099B09261737074807590708F07ECFB0
:100AA000B7CF2FB7F8948091180290911902A091B6
:100AB0001A02B0911B022FBF84199509A609B70924
:100AC0002E813F814885598582179307A407B50772
:100AD00008F4B2CFEF0C0F19EF1408F4EDCE211487
:100AE000310411F18FB7F894409118025091190216
:100AF00060911A0270911B028FBF44195509660953
:100B00007709C101B0E0A0E0481759076A077B07E1
:100B100058F03B85832F330F990B49815A818417F5
:100B2000950714F45FEF5B878B852B960FB6F894CF
:100B3000DEBF0FBECDBFDF91CF911F910F91FF9010
:100B4000EF90DF90CF90BF90AF909F908F907F906D
:100B50006F905F904F903F902F900895BF92CF92EB
:100B6000DF92EF92FF920F931F93CF93DF9300D00A
:100B7000CDB7DEB7F82EE62EC42EB22ED02E08EE5C
:100B800013E09E012E5F3F4F41E00E942004882326
:100B900099F18C2D8B19990BAC014F5F5F4F81E060
:100BA00090E002C0880F991FBA94E2F70197042ED3
:100BB00001C0880F0A94EAF70D2D01C0000F4A9575
:100BC000EAF7982F90952A8192238023892B8A8394
:100BD0008983AE014F5F5F4F6E2D8F2D0E94E6031C
:100BE0000F900F90DF91CF911F910F91FF90EF9099
:100BF000DF90CF90BF90089580E0F2CF85ED809395
:100C0000BC008091480290914902A0914A02B091A3
:100C10004B020796A11DB11D23E0B695A7959795A8
:100C200087952A95D1F72091BC0024FD03C010922E
:100C300046020895409148025091490260914A024B
:100C400070914B02452B462B472B69F30097A1056A
:100C5000B10541F025E32A95F1F700000197A109BC
:100C6000B109E1CF809147020C94D5021F920F92F7
:100C70000FB60F9211242F933F938F939F93AF93AF
:100C8000BF938091180290911902A0911A02B0911D
:100C90001B023091170223E0230F2D3758F50196E0
:100CA000A11DB11D20931702809318029093190281
:100CB000A0931A02B0931B0280911C0290911D0216
:100CC000A0911E02B0911F020196A11DB11D80933B
:100CD0001C0290931D02A0931E02B0931F02BF91AD
:100CE000AF919F918F913F912F910F900FBE0F90D9
:100CF0001F90189526E8230F0296A11DB11DD2CF93
:100D00001F920F920FB60F9211242F933F934F9380
:100D10005F936F937F938F939F93AF93BF93EF9363
:100D2000FF9380E792E00E947801FF91EF91BF91DD
:100D3000AF919F918F917F916F915F914F913F9173
:100D40002F910F900FBE0F901F9018951F920F922A
:100D50000FB60F9211242F938F939F93EF93FF93CE
:100D6000E0918002F09181028081E0918602F09111
:100D7000870282FD1BC09081809189028F5F8F73F3
:100D800020918A02821741F0E0918902F0E0E05957
:100D9000FD4F958F80938902FF91EF919F918F91E5
:100DA0002F910F900FBE0F901F9018958081F4CF58
:100DB0001F920F920FB60F9211242F933F934F93D0
:100DC0005F936F937F938F939F93AF93BF93EF93B3
:100DD000FF938091B900887F803609F44AC0F0F50E
:100DE000883209F4A7C018F5803109F49BC0B8F423
:100DF000882309F4F9C0883009F494C0FF91EF9179
:100E0000BF91AF919F918F917F916F915F914F9122
:100E10003F912F910F900FBE0F901F901895883122
:100E200009F488C0803251F78093440214C08034A2
:100E300009F49DC040F48033B9F38833F9F6809308
:100E4000440285ECB0C0803509F485C0883509F4CA
:100E500096C0883499F60E94FE05D0CF883909F4EF
:100E60008CC038F5883729F050F4883611F0803777
:100E700029F683E0809346021092E30157C0883838
:100E800009F47BC0803919F0803809F0B7CF809120
:100E9000E301803208F071C0E091E30181E08E0F40
:100EA0008093E3018091BB00F0E0ED53FE4F80831F
:100EB0003DC0803B39F0E0F4803A09F479C0883ACB
:100EC00009F09CCF84E0809346021092C2011092F8
:100ED000C101E0910602F091070209958091C101DC
:100EE00081110FC081E08093C1011092A10109C05E
:100EF000803C09F4A6CF883C09F4A3CF883B09F0D5
:100F00007DCFE091C20181E08E0F8093C201F0E0BD
:100F1000EF55FE4F80818093BB009091C20180917C
:100F2000C10129C0809121028093BB0085EC809390
:100F3000BC0064CF9091430280914202981758F50B
:100F4000E091430281E08E0F80934302F0E0EE5D7A
:100F5000FD4F8081E9CFE091430281E08E0F8093C5
:100F600043028091BB00F0E0EE5DFD4F80839091E5
:100F70004302809142029817C8F285E8D8CFE091E9
:100F8000430281E08E0F809343028091BB00F0E02A
:100F9000EE5DFD4F80838091450281115CCF81E041
:100FA0008093200284EA8093BC001092460226CFF0
:100FB00085EC8093BC00109246028091E301803260
:100FC00030F4E091E301F0E0ED53FE4F10826091C8
:100FD000E30170E0E0910402F091050283EC91E0FE
:100FE00009951092E3010ACF1092440234CFE0E752
:100FF000F2E01382128288EE93E0A0E0B0E08483F6
:101000009583A683B78324E031E03183208325ECE8
:1010100030E03587248724EC30E03787268720ECC2
:1010200030E0318B208B21EC30E0338B228B22ECB3
:1010300030E0358B248B26EC30E0378B268B118EFD
:10104000128E138E148EEDE0F3E0138212828483ED
:101050009583A683B78386E191E09183808388E6B8
:10106000809319030895CF93DF93CDB7DEB7A2978E
:101070000FB6F894DEBF0FBECDBF789484B5826002
:1010800084BD84B5816084BD85B5826085BD85B52C
:10109000816085BD80916E00816080936E001092AA
:1010A0008100809181008260809381008091810025
:1010B00081608093810080918000816080938000B6
:1010C0008091B10084608093B1008091B000816014
:1010D0008093B00080917A00846080937A00809140
:1010E0007A00826080937A0080917A008160809398
:1010F0007A0080917A00806880937A001092C10013
:10110000109209021092080210924D0210926F0282
:101110000E94B70288EF90E0909307028093060246
:1011200089EF90E09093050280930402E0918002A1
:10113000F091810282E08083E0917C02F0917D0257
:101140001082E0917E02F0917F0283E3808310920F
:101150008802E0918402F091850286E08083E0912C
:101160008202F0918302808180618083E09182021B
:10117000F0918302808188608083E0918202F09107
:101180008302808180688083E0918202F0918302F3
:1011900080818F7D80838FE591E00E94120401E0C1
:1011A00023E042E06BE6809119030E94AE0500E067
:1011B00022E044E06BE1809119030E94AE0522E039
:1011C00044E06CE1809119030E94AE05F090190390
:1011D00008EE13E09E012F5F3F4F41E06BE68F2D3D
:1011E0000E94200489818F7B89838AA3AE014E5D92
:1011F0005F4F6BE68F2D0E94E6038BE791E00E9424
:1012000012049E012F5F3F4F41E065E78091190373
:101210000E942004882339F089818E7790E095958B
:10122000879580931A0380911A03843309F4F9C0D7
:101230008C3009F4F6C085E491E00E941204EDE9D7
:10124000F0E02491E9E8F0E08491882399F090E0BF
:10125000880F991FFC01E859FF4FA591B491FC013B
:10126000EE58FF4F859194918FB7F894EC91E22B53
:10127000EC938FBF9AE0492E512C612C712C3324B2
:10128000339408EE13E02AE133E042E061E4809118
:1012900019030E9420042AE133E046E06BE38091C9
:1012A00019030E94200480911A0390911B03982730
:1012B00089279827909316028093150280911C032A
:1012C00090911D0398278927982790931402809363
:1012D000130280911E0390911F0398278927982756
:1012E00090931202809311022AE133E046E063E416
:1012F000809119030E94200480911A0390911B038E
:101300009827892798279093100280930F02809145
:101310001C0390911D0398278927982790930E020C
:1013200080930D0280911E0390911F0398278927B7
:10133000982790930C0280930B0289E991E00E9418
:101340000504C0901502D09016020D2C000CEE087A
:10135000FF08F7FE69C06DE280E792E00E949A0103
:1013600022273327A9012C193D094E095F0919A22B
:10137000CE0181967C01CA01B901A30192010E94AC
:101380002A0A605DF70162937F012115310541054D
:10139000510589F7E114F10419F0C7010E94050411
:1013A0008DE991E00E9405048EE991E00E9412040B
:1013B00060910A02632560930A028DE00E94870013
:1013C0000E94D3004B015C0184E6C82ED12CE12C95
:1013D000F12C0E94D300681979098A099B09683E9B
:1013E000734081059105A8F3F1E0CF1AD108E10817
:1013F000F10828EE820E23E0921EA11CB11CC1143C
:10140000D104E104F10429F780E090E0892B09F48C
:1014100038CF0E946401882309F433CF0E94000072
:1014200030CF87E291E009CFA701960119A2CE0142
:1014300081967C01CA01B901A30192010E942A0A86
:10144000605DF70162937F0121153105410551056A
:1014500089F7A0CFA1E21A2EAA1BBB1BFD010DC06C
:10146000AA1FBB1FEE1FFF1FA217B307E407F50754
:1014700020F0A21BB30BE40BF50B661F771F881F30
:10148000991F1A9469F760957095809590959B01C6
:10149000AC01BD01CF010895EE0FFF1F0590F4913F
:0814A000E02D0994F894FFCF40
:1014A800000000009A01FA002701E70158013601FF
:1014B8004A010000000088025B0231020E020702A6
:1014C8001E020F020D0A004D50553630353020638C
:1014D8006F6E6E656374696F6E2073756363657391
:1014E8007366756C004D50553630353020636F6E1D
:1014F8006E656374696F6E206661696C6564004926
:101508006E697469616C697A696E67204932432033
:10151800646576696365732E2E2E0054657374694D
:101528006E672064657669636520636F6E6E6563B8
:1015380074696F6E732E2E2E00612F673A090000B2
:00000001FF
